:100000000C94EA000C9412010C9412010C9412014D
:100010000C9412010C9412010C9412010C94120114
:100020000C9412010C9412010C9439060C94D50412
:100030000C9412010C9412010C9412010C941201F4
:100040000C9412010C9412010C9412010C941201E4
:100050000C9412010C9412010C9412010C94CD0614
:100060000C9412010C9412010C9412010C941201C4
:100070000C9412010C9412010C9412010C941201B4
:100080000C9412010C9412010C9412010C941201A4
:100090000C9412010C9412010C9412010C94120194
:1000A0000C9412010C9412010C9412011201000222
:1000B000EF02014041233680000101020301417239
:1000C0006475696E6F204C4C430041726475696EB3
:1000D0006F204C656F6E6172646F00040309040049
:1000E000000000000000002A2B2800000000000093
:1000F0000000000000000000000000000000002CD4
:100100009EB4A0A1A2A434A6A7A5AE362D37382749
:100110001E1F20212223242526B333B62EB7B89FD5
:100120008485868788898A8B8C8D8E8F9091929317
:100130009495969798999A9B9C9D2F3130A3AD35B5
:100140000405060708090A0B0C0D0E0F10111213F7
:100150001415161718191A1B1C1DAFB1B0B50005E0
:10016000010906A1018502050719E029E715002507
:100170000175019508810295017508810395067541
:1001800008150025730507190029738100C0080BA5
:100190000002020200000904000001020200000542
:1001A000240010010524010101042402060524068F
:1001B00000010705810310004009040100020A0044
:1001C000000007050202400000070583024000000E
:1001D000FE08070A11241FBECFEFDAE0DEBFCDBF55
:1001E00011E0A0E0B1E0EEE9F8E102C005900D9267
:1001F000AE33B107D9F721E0AEE3B1E001C01D9203
:10020000A13EB207E1F710E0CAEED0E004C02197AA
:10021000FE010E94470CC83ED107C9F70E94810227
:100220000C944D0C0C940000CF92DF92EF92FF9251
:100230000F931F93FB01D80163B170E0082E02C039
:10024000759567950A94E2F760FD30C0CD90DD901A
:10025000ED90FC901397C114D104E104F10449F42A
:100260009081911106C02D933D934D935C9313970C
:100270003BC0BA01A9014C195D096E097F094233DF
:1002800051056105710580F123B130E0A90102C07B
:10029000559547958A95E2F740FD20C081E080831F
:1002A0001D921D921D921C9213971EC0808188235F
:1002B000D9F0CD90DD90ED90FC901397C114D1044E
:1002C000E104F10481F2BA01A9014C195D096E093A
:1002D0007F09423351056105710530F01D921D9271
:1002E0001D921C92139710821F910F91FF90EF9017
:1002F000DF90CF90089587E591E00E942E0868EE88
:1003000073E080E090E00E944807249825982698A2
:1003100027982C9A2D9A2E9A2F9A549A579A5C982D
:100320005F980895CF93DF93CDB7DEB76B970FB685
:10033000F894DEBF0FBECDBF1D861E861F86188AAD
:1003400019861A861B861C861D821E821F821886AD
:1003500019821A821B821C821C8A1B8A1A8A198A99
:100360001B8E1A8E198E312C1D8A1E8A1F8A188E9A
:10037000412C512C3201812C912C54010E941707E1
:100380006B017C018E01035F1F4F9B01AC01BE011D
:100390006C5E7F4F84E090E00E94140104501109CC
:1003A000A7019601BE016D5E7F4F85E090E00E943F
:1003B000140104501109A7019601BE016E5E7F4F22
:1003C00086E090E00E94140104501109A7019601F3
:1003D000BE016F5E7F4F87E090E00E9414012C8881
:1003E000321481F0222049F05C9A67ED87E591E0B4
:1003F0000E943C082601370105C067ED87E591E0C2
:100400000E94A608D701C60184199509A609B70953
:10041000C297A105B10508F05C980B89298D2017BA
:1004200081F0002349F05F9A68ED87E591E00E9432
:100430003C084601570105C068ED87E591E00E9440
:10044000A608D701C60188199909AA09BB09C2974C
:10045000A105B10508F05F983A883A8D331599F0F7
:10046000332031F060EB87E591E00E943C080BC03F
:100470005C9A5F9A60EB87E591E00E94A6082601EE
:1004800037014601570119894B8D411731F011236E
:1004900021F01C8A1B8A1A8A198AD701C6012D8964
:1004A0003E894F89588D821B930BA40BB50B803A64
:1004B0009F40A105B10530F05C985F98CD8ADE8A37
:1004C000EF8AF88E8C89811105C067ED87E591E090
:1004D0000E94A6088B89811105C068ED87E591E02F
:1004E0000E94A6088A89882329F01B8F3A8E098FDB
:1004F000322C44CF60EB87E591E00E94A608F5CF4F
:1005000008950E9484070E9480028EE391E00E9479
:10051000BA060E947B01C0E0D0E00E9492012097C1
:10052000E1F30E940000F9CF615030F02091F1001A
:10053000FC0120830196F8CF289884E68093460139
:100540000895409141015091420120913F01309125
:10055000400142175307B4F49091E8009570E1F31D
:100560009091E80092FD19C08093F10080914101C3
:100570009091420101968F739927892B19F48EEF80
:100580008093E800809141019091420101969093FF
:1005900042018093410181E0089580E00895DF9257
:1005A000EF92FF920F931F93CF93DF93D82EF92EE4
:1005B000E42E062F10E0C8010196880F0E94A102C8
:1005C00083E00E94A102CD2DDF2D0C0F1D1FC0174F
:1005D000D10789F0E7FE03C0FE01849101C0888144
:1005E0000E94A102F82E80E00E94A1028F21219694
:1005F0008111EDCF01C081E0DF91CF911F910F916B
:10060000FF90EF90DF9008958091D70081608093F4
:10061000D70080EA8093D80089B5806189BD89B50B
:10062000826089BD09B400FEFDCF61E070E080E02A
:1006300090E00E9448078091D8008F7C8061809371
:10064000D8008091E000807F8093E0000895CF93F0
:10065000DF931F92CDB7DEB71982CE0101960E94BB
:100660006E090E94E90ABE016F5F7F4F0E941D0A5A
:1006700089810F90DF91CF9108952FB7FC012083DE
:10068000F89467706093E9000895CF93DF931F9209
:10069000CDB7DEB7682FCE0101960E943D03809151
:1006A000F20099819FBF0F90DF91CF910895EF9253
:1006B000FF920F931F93CF93DF931F92CDB7DEB7B7
:1006C00090914501992311F057FF03C08FEF9FEFE1
:1006D00029C08A017B01682FCE0101960E943D034B
:1006E0002091F20030E0021713070CF49801822FDA
:1006F000F70194E6815038F0289890934601409194
:10070000F1004193F7CF2115310521F08091F200DE
:10071000882321F089818FBFC90104C08BE68093B3
:10072000E800F8CF0F90DF91CF911F910F91FF90CC
:10073000EF900895CF93DF931F92CDB7DEB741E0DE
:1007400050E0BE016F5F7F4F0E945703019719F47D
:10075000898190E002C08FEF9FEF0F90DF91CF91E2
:100760000895CF93DF931F92CDB7DEB7682FCE01E8
:1007700001960E943D039091E800892F807295FFB9
:1007800004C09091F20080E4891B99819FBF0F9073
:10079000DF91CF9108955F926F927F928F929F9297
:1007A000AF92BF92CF92DF92EF92FF920F931F937F
:1007B000CF93DF931F92CDB7DEB7982E6B01B42E87
:1007C000052F80914501811103C08FEF9FEF77C006
:1007D0008091430180FF05C08091E000826080939A
:1007E000E000EB2CF02EA12C8AEF882E892D807250
:1007F000682E892D8074582E9AE3792EE114F10425
:1008000019F4AA2009F455C0892D0E94B103182FAC
:1008100081110AC08A948820C1F261E070E080E012
:1008200090E00E944807EACF90E0E816F9060CF441
:100830001E2D692DCE0101960E943D038091E80096
:1008400085FF34C0812F90E0E81AF90A662029F06C
:100850001150A0F01092F100FBCFF60197FE0AC0F4
:10086000115050F024912093F1003196F9CF21914D
:100870002093F1001150D8F7C80ED91EAA2019F004
:100880007092E8000BC08091E80085FD09C070926D
:10089000E800AA24A394E114F10441F0A12C06C0BD
:1008A000E114F10419F451107092E80089818FBFAE
:1008B000A5CF5D9884E6809347018B2D902F0F90F4
:1008C000DF91CF911F910F91FF90EF90DF90CF902C
:1008D000BF90AF909F908F907F906F905F900895A2
:1008E0001092E90010924201109241019093400150
:1008F00080933F010895DF92EF92FF920F931F9331
:10090000CF93DF93D82E8A017B01E40EF51EEB0115
:10091000CE15DF0571F0D7FE03C0FE01849101C042
:1009200088810E94A10221968111F2CF8FEF9FEF63
:1009300001C0C801DF91CF911F910F91FF90EF90FF
:10094000DF900895AF92BF92DF92EF92FF920F93E4
:100950001F93CF93DF935C018B01EB019BEFD92EAB
:100960002097C1F07E01C134D1051CF080E4E82E4F
:10097000F12C8091E80082FFFCCFC8018C1B9D0BFD
:100980006E2D8A0D9B1D0E949402D092E800CE1914
:10099000DF09E6CFC801DF91CF911F910F91FF9042
:1009A000EF90DF90BF90AF9008951F920F920FB617
:1009B0000F921124CF92DF92EF92FF920F931F9329
:1009C0002F933F934F935F936F937F938F939F9357
:1009D000AF93BF93EF93FF93CF93DF93CDB7DEB782
:1009E0006C97DEBFCDBF1092E9008091E80083FFD5
:1009F00017C168E0CE0145960E94940282EF809371
:100A0000E8008D8987FF05C09091E80090FFFCCF3A
:100A100003C09EEF9093E800982F907609F0D8C01D
:100A20009E894F89588D2F89188D91110CC080385F
:100A300029F4809144018093F10002C01092F100EA
:100A40001092F100E6C0913051F48111E2C04130C2
:100A5000510509F0DEC0809144018D7F0BC09330B9
:100A600061F48111D6C04130510509F0D2C08091A6
:100A70004401826080934401CCC0953049F4809158
:100A8000E80080FFFCCF822F80688093E300C1C024
:100A9000963009F070C0EB8CFC8C123069F580E068
:100AA00090E00E9470040E94270399E09E012F5F4E
:100AB0003F4F6901F901292F11922A95E9F799838E
:100AC0001A8391E09E8390EA98879AEF9987209104
:100AD000410130914201275F3F4F3C832B838D833F
:100AE000C7010E94700449E050E0B60180E00E9416
:100AF0007B040E9427038DC0C7010E9470040E94DE
:100B0000E90ABE016B5E7F4F0E94460A009719F00A
:100B10000CF07FC082C0113009F470C0133009F0AE
:100B20007CC08F89882309F46CC0823029F440E8A6
:100B300060E18AEC90E006C0813039F440E86BE077
:100B40008EEB90E00E94CF0256C0833009F065C062
:100B50000E94E90A8E010F5F1F4FB8010E94650ACB
:100B6000F80101900020E9F73197BF01601B710B7C
:100B700040E0C801E7CF973009F44FC0983021F426
:100B800081E08093F10045C0993009F042C0837044
:100B900009F043C0E1E0F1E081E031E096E320813B
:100BA000211109C08EE78093EA001092EA008F8934
:100BB000809345012EC08093E9003093EB00219192
:100BC0002093EC009093ED008F5F873041F7EACFE0
:100BD0008B8D9C8D0E947004898D811105C0CE0182
:100BE00045960E94790907C00E94E90ABE016B5E22
:100BF0007F4F0E94840A882381F00BC06CEA70E06A
:100C000002C06BED70E0FB01449150E080E80E946F
:100C10007B048EEF8093E80003C081E28093EB00B9
:100C20006C960FB6F894DEBF0FBECDBFDF91CF91AB
:100C3000FF91EF91BF91AF919F918F917F916F91B4
:100C40005F914F913F912F911F910F91FF90EF90E6
:100C5000DF90CF900F900FBE0F901F90189580934C
:100C6000E9008091F200882319F08AE38093E8007C
:100C700008951F920F920FB60F9211242F933F9356
:100C80004F935F936F937F938F939F93AF93BF9394
:100C9000CF93EF93FF93C091E1008091E100837FB8
:100CA0008093E100C3FF0FC01092E90081E08093C0
:100CB000EB001092EC0082E38093ED00109245016E
:100CC00088E08093F000C2FF19C083E00E942F06E5
:100CD00080914701882339F08091470181508093AA
:100CE0004701882389F180914601882339F080915A
:100CF0004601815080934601882341F1C4FF10C012
:100D00008091E2008E7E81608093E2008091E1001C
:100D10008F7E8093E100809143018E7E806111C0BF
:100D2000C0FF16C08091E2008E7E80618093E20059
:100D30008091E1008E7E8093E100809143018E7E60
:100D400081608093430104C05D9ACDCF289AD6CFAD
:100D5000FF91EF91CF91BF91AF919F918F917F9133
:100D60006F915F914F913F912F910F900FBE0F9018
:100D70001F90189510924501109244011092430162
:100D80000E940403E1EEF0E080818E7E80838DE09E
:100D90008093E200559A209A08951F920F920FB601
:100DA0000F9211242F933F938F939F93AF93BF93F1
:100DB0008091490190914A01A0914B01B0914C0161
:100DC0003091480123E0230F2D3720F40196A11D17
:100DD000B11D05C026E8230F0296A11DB11D209369
:100DE00048018093490190934A01A0934B01B0932D
:100DF0004C0180914D0190914E01A0914F01B09115
:100E000050010196A11DB11D80934D0190934E019B
:100E1000A0934F01B0935001BF91AF919F918F91DB
:100E20003F912F910F900FBE0F901F9018952FB7E5
:100E3000F8946091490170914A0180914B01909121
:100E40004C012FBF08953FB7F89480914D019091C8
:100E50004E01A0914F01B091500126B5A89B05C04D
:100E60002F3F19F00196A11DB11D3FBFBA2FA92F29
:100E7000982F8827820F911DA11DB11DBC01CD01A6
:100E800042E0660F771F881F991F4A95D1F7089592
:100E90008F929F92AF92BF92CF92DF92EF92FF928A
:100EA0006B017C010E9423074B015C01C114D1043A
:100EB000E104F10401F10E941C0A0E942307DC01F5
:100EC000CB0188199909AA09BB09883E9340A1055D
:100ED000B10560F321E0C21AD108E108F10888EEFB
:100EE000880E83E0981EA11CB11CC114D104E1043A
:100EF000F10419F7DBCFFF90EF90DF90CF90BF9018
:100F0000AF909F908F900895789484B5826084BD4F
:100F100084B5816084BD85B5826085BD85B58160FD
:100F200085BDEEE6F0E0808181608083E1E8F0E05D
:100F30001082808182608083808181608083E0E88C
:100F4000F0E0808181608083E1E9F0E0808182606F
:100F50008083808181608083E0E9F0E0808181602E
:100F60008083E1ECF0E08081846080838081826016
:100F70008083808181608083E3ECF0E08081816008
:100F80008083E0ECF0E0808182608083E2ECF0E03E
:100F9000808181608083EAE7F0E0808184608083E3
:100FA000808182608083808181608083808180688D
:100FB0008083089580E090E008950895CF92DF92B5
:100FC000EF92FF920F931F93CF93DF936C01EB018E
:100FD0007B01E40EF51E00E010E0CE15DF0581F088
:100FE00069916D30D1F3D601ED91FC910190F081C2
:100FF000E02DC6010995892B19F00F5F1F4FEDCF2A
:10100000C801DF91CF911F910F91FF90EF90DF907A
:10101000CF900895FC011382128227E131E03183E1
:10102000208380916301811113C0109252011092AC
:1010300051018FE591E090935401809353018FE229
:1010400090E0909356018093550181E08093630175
:101050000E94390C61E571E00C94C80B0895CF93A0
:10106000DF93EB010E94390C28E030E0AE0162E032
:10107000DF91CF910C94E50BDC01683810F06858D3
:101080002DC0E62FF0E067FF11C0E058F10981E0C4
:1010900090E001C0880FEA95EAF714969C911497A6
:1010A000892B14968C93149760E018C0E152FF4F7F
:1010B0006491611109C081E090E013969C938E9336
:1010C000129780E090E0089567FF08C014968C9115
:1010D0001497826014968C9314976F7716968C9160
:1010E0001697681751F117968C911797681729F181
:1010F00018968C911897681701F119968C91199789
:101100006817D9F01A968C911A976817B1F01B9648
:101110008C911B97681789F0FD01369680E090E06E
:101120002191211105C0FD01E80FF91F668305C05B
:10113000019686309105A1F7BECFCD01BD016C5F50
:101140007F4F0E942F0881E090E00895DC0168380D
:1011500010F0685825C0E62FF0E067FF12C0E05895
:10116000F10981E090E001C0880FEA95EAF78095E7
:1011700014969C911497892314968C93149760E08D
:101180000FC0E152FF4F64916623F9F067FF08C07A
:1011900014968C9114978D7F14968C9314976F7777
:1011A000FD0186E0662321F09681691301C0168255
:1011B000815031968111F6CFCD01BD016C5F7F4F1B
:1011C0000E942F0881E090E0089580E090E008956B
:1011D000EF92FF921F93CF93DF93EC01162F0E94A3
:1011E0003C087C01612FCE010E94A608C701992707
:1011F000DF91CF911F91FF90EF90089587E591E0E7
:101200000C940A08CF93DF931F92CDB7DEB76983A2
:10121000DC01ED91FC910280F381E02D41E050E092
:10122000BE016F5F7F4F09950F90DF91CF910895B9
:10123000CF93DF93EC018C859D8597FF05C082E0FD
:101240000E949A039D878C878C859D85DF91CF9125
:10125000089583E00E94B10390E0089583E00C9428
:101260002F06FC018485958597FD06C082E00E94CB
:10127000450390E00196089582E00E94450390E0C6
:101280000895FC018485958597FD05C02FEF3FEFFC
:1012900035872487089582E00C949A03CF93DF93D7
:1012A000EC0180911201882331F083E00E94CB038E
:1012B0001816190634F081E090E09B838A8380E061
:1012C00090E0DF91CF910895EEEFFFE72591349103
:1012D00081E02B3F3C4D09F080E00895FC019081B6
:1012E0009E5F908342E450E06EE871E080E80C94E9
:1012F0007B04FC0181819081913A59F4813209F09B
:1013000065C047E050E06BE071E080E00E947B0444
:101310005BC0913209F05AC0833269F482819381B3
:10132000A0E0B0E08093070190930801A093090129
:10133000B0930A0149C0803239F467E070E08BE075
:1013400091E00E94A20440C0823209F03DC0828137
:10135000809312010E946409882319F0EEEFFAE0ED
:1013600002C0E0E0F8E080910B0190910C01A091A7
:101370000D01B0910E01803B9440A105B10541F5EE
:101380008091120180FD24C0EE3F8AE0F80751F001
:1013900080819181873727E7920721F09093FF0A98
:1013A0008093FE0A87E797E79183808380916000AE
:1013B0008093BB019BE088E10FB6F894A8958093D9
:1013C00060000FBE9093600081E0089580E0089572
:1013D0008081918187379747B9F7A8958091600000
:1013E0008861809360008091BB0180936000EE3F34
:1013F0008AE0F80739F08091FE0A9091FF0A918304
:101400008083E2CF1092FF0A1092FE0ADDCFEBE656
:10141000F1E01382128288EE93E0A0E0B0E08483D2
:101420009583A683B78383E291E0918380838FEFD6
:101430009FEF9587848708950895EF92FF920F9309
:101440001F93CF93DF937B01FC01C281D38100E026
:1014500010E0209781F0E881F9810280F381E02D8E
:10146000B701CE01099597FD08C0080F191F088420
:10147000D985C02DEECFC80102C08FEF9FEFDF915D
:10148000CF911F910F91FF90EF9008950F931F93AD
:10149000CF93DF938B01FC01C281D381209771F040
:1014A000E881F9810480F581E02DB801CE0109952C
:1014B000009731F40884D985C02DF0CF80E090E00A
:1014C000DF91CF911F910F9108950F931F93CF93A9
:1014D000DF938B01FC01C281D381209771F0E881F9
:1014E000F9810680F781E02DB801CE010995080F3A
:1014F000111D0884D985C02DF0CFF8011082DF912D
:10150000CF911F910F9108950F931F93CF93DF9366
:101510008B01FC01C281D381209771F0E881F981B0
:101520000190F081E02DB801CE010995811105C02F
:101530000884D985C02DF0CF80E0DF91CF911F9135
:101540000F910895CF93DF93FC01DB012181149665
:101550008C91149790E0820F911D0897A4F5C28199
:10156000D381209719F47383628308C08885998595
:10157000009711F0EC01FACFB987A8878081129605
:101580008C931297818113968C9313979081159663
:101590008C911597890F808380E014969C91149705
:1015A000891798F41696CD91DC911797C80FD11D25
:1015B0009881C181D0E0C050DF4F988391819F5FB7
:1015C00091838F5FEACF80E001C081E0DF91CF910E
:1015D00008958091C00181110DC082E08093BC010B
:1015E00084E08093BD011092BF011092BE0181E0A2
:1015F0008093C0018CEB91E00895DC01FB0188E44D
:10160000808389E4818384E482831D969C911D9765
:101610009F709F5B93831D968D919C911E9724E0F4
:10162000969587952A95E1F78F708F5B848385E087
:101630000895CF93DF93CDB7DEB769970FB6F894CF
:10164000DEBF0FBECDBFFC01DB018C918F5F8C93A1
:10165000BE016F5F7F4F89E1DB011D928A95E9F73B
:1016600029E0298384E08A8391E09D8383E08E834F
:101670002A8721E22B879C879D879F8722E2288BE0
:1016800027E02B8B25E02C8B8E8B20E430E0388FED
:101690002F8B998F82818B8395858685998B8A8BF9
:1016A000838180688D8B49E150E080E00E947B045B
:1016B00069960FB6F894DEBF0FBECDBFDF91CF9114
:1016C0000895EF92FF920F931F93CF93DF93FB0147
:1016D0002081213851F52381223239F5DC0112961F
:1016E0002C9130E04481558142175307F1F4EC010D
:1016F0000B851C85E12CF12C0115110591F0F801E9
:10170000448155816281738180E80E947B048F3F10
:10171000FFEF9F0769F0E80EF91ED8010D911C91AB
:10172000EBCF81E08F87C70105C080E090E002C069
:101730008FEF9FEFDF91CF911F910F91FF90EF906F
:101740000895DC01FB0112968C91129790E02481A0
:10175000358182179307D1F491818081813A31F4E8
:1017600081E0913091F0933089F411C0813271F4AD
:101770009B3021F482811F968C9305C09A3031F4FE
:10178000828150968C9381E00895089580E00895B9
:10179000FC01A385B485109719F47487638709C089
:1017A0008D919C911197009711F0DC01F9CF6D9309
:1017B0007C9325853685DB0114968D919C91159738
:1017C000820F931F968785870895AF92BF92CF921D
:1017D000DF92EF92FF920F931F93CF93DF931F92AD
:1017E000CDB7DEB77C0169836A01590141E050E061
:1017F000BE016F5F7F4FFC0183810E94CB038C0190
:1018000097FD0BC0F7018381A501B60180640E949A
:10181000CB0397FD02C0800F911F0F90DF91CF91F6
:101820001F910F91FF90EF90DF90CF90BF90AF90FE
:101830000895CF93DF93EC0181E08C838D839E012B
:10184000265F3F4F3F832E831986188625E331E0BC
:10185000398328831C861B861E861D868F87888B6E
:1018600081EC8A870E94E90ABE01DF91CF910C9436
:10187000A20A8091D901811107C088EC91E00E94F1
:10188000190C81E08093D90188EC91E00895EE0F66
:0E189000FF1F0590F491E02D0994F894FFCF0E
:10189E0000C18081000000FFFFFFFF00E10000009B
:1018AE0000000000000000E808DE07DA07DD070090
:1018BE0000000002094E0929092E093109410918B3
:0E18CE000900000000A10B190B610BFD0A00C0
:00000001FF
